{
    "_format": "hh-sol-artifact-1",
    "contractName": "WavePortal",
    "sourceName": "contracts/WavePortal.sol",
    "abi": [
        {
            "inputs": [],
            "stateMutability": "nonpayable",
            "type": "constructor"
        },
        {
            "anonymous": false,
            "inputs": [
                {
                    "indexed": true,
                    "internalType": "address",
                    "name": "from",
                    "type": "address"
                },
                {
                    "indexed": false,
                    "internalType": "uint256",
                    "name": "timestamp",
                    "type": "uint256"
                },
                {
                    "indexed": false,
                    "internalType": "string",
                    "name": "message",
                    "type": "string"
                }
            ],
            "name": "NewWave",
            "type": "event"
        },
        {
            "inputs": [
                {
                    "internalType": "address",
                    "name": "",
                    "type": "address"
                }
            ],
            "name": "Wallets",
            "outputs": [
                {
                    "internalType": "bool",
                    "name": "",
                    "type": "bool"
                }
            ],
            "stateMutability": "view",
            "type": "function"
        },
        {
            "inputs": [],
            "name": "addFriend",
            "outputs": [],
            "stateMutability": "nonpayable",
            "type": "function"
        },
        {
            "inputs": [],
            "name": "getAllWaves",
            "outputs": [
                {
                    "components": [
                        {
                            "internalType": "address",
                            "name": "waver",
                            "type": "address"
                        },
                        {
                            "internalType": "string",
                            "name": "message",
                            "type": "string"
                        },
                        {
                            "internalType": "uint256",
                            "name": "timestamp",
                            "type": "uint256"
                        }
                    ],
                    "internalType": "struct WavePortal.Wave[]",
                    "name": "",
                    "type": "tuple[]"
                }
            ],
            "stateMutability": "view",
            "type": "function"
        },
        {
            "inputs": [],
            "name": "getTotalWaves",
            "outputs": [
                {
                    "internalType": "uint256",
                    "name": "",
                    "type": "uint256"
                }
            ],
            "stateMutability": "view",
            "type": "function"
        },
        {
            "inputs": [],
            "name": "removeFriend",
            "outputs": [],
            "stateMutability": "nonpayable",
            "type": "function"
        },
        {
            "inputs": [
                {
                    "internalType": "address",
                    "name": "_wallet",
                    "type": "address"
                },
                {
                    "internalType": "bool",
                    "name": "b",
                    "type": "bool"
                }
            ],
            "name": "setWallet",
            "outputs": [],
            "stateMutability": "nonpayable",
            "type": "function"
        },
        {
            "inputs": [
                {
                    "internalType": "string",
                    "name": "_message",
                    "type": "string"
                }
            ],
            "name": "wave",
            "outputs": [],
            "stateMutability": "nonpayable",
            "type": "function"
        }
    ],
    "bytecode": "0x60806040523480156200001157600080fd5b5033600160006101000a81548173ffffffffffffffffffffffffffffffffffffffff021916908373ffffffffffffffffffffffffffffffffffffffff1602179055506200008260405180606001604052806025815260200162001402602591396200008860201b620007021760201c565b6200021c565b62000128816040516024016200009f919062000195565b6040516020818303038152906040527f41304fac000000000000000000000000000000000000000000000000000000007bffffffffffffffffffffffffffffffffffffffffffffffffffffffff19166020820180517bffffffffffffffffffffffffffffffffffffffffffffffffffffffff83818316178352505050506200012b60201b60201c565b50565b60008151905060006a636f6e736f6c652e6c6f679050602083016000808483855afa5050505050565b60006200016182620001b9565b6200016d8185620001c4565b93506200017f818560208601620001d5565b6200018a816200020b565b840191505092915050565b60006020820190508181036000830152620001b1818462000154565b905092915050565b600081519050919050565b600082825260208201905092915050565b60005b83811015620001f5578082015181840152602081019050620001d8565b8381111562000205576000848401525b50505050565b6000601f19601f8301169050919050565b6111d6806200022c6000396000f3fe608060405234801561001057600080fd5b506004361061007d5760003560e01c8063af1540111161005b578063af154011146100d8578063b177c3f714610108578063bd43a90814610112578063c9c8161e146101305761007d565b8063449d46c014610082578063788cea161461009e5780639a2cdc08146100ba575b600080fd5b61009c60048036038101906100979190610b8b565b61013a565b005b6100b860048036038101906100b39190610b4f565b610419565b005b6100c2610474565b6040516100cf9190610e66565b60405180910390f35b6100f260048036038101906100ed9190610b26565b6104bf565b6040516100ff9190610d84565b60405180910390f35b6101106104df565b005b61011a610548565b6040516101279190610d62565b60405180910390f35b610138610699565b005b600160009054906101000a900473ffffffffffffffffffffffffffffffffffffffff1673ffffffffffffffffffffffffffffffffffffffff163373ffffffffffffffffffffffffffffffffffffffff16148061019b575061019a3361079b565b5b156103d65760016000808282546101b29190610f6d565b92505081905550600160009054906101000a900473ffffffffffffffffffffffffffffffffffffffff1673ffffffffffffffffffffffffffffffffffffffff163373ffffffffffffffffffffffffffffffffffffffff1614156102525761024d6040518060400160405280601281526020017f49207761766564206174206d7973656c66210000000000000000000000000000815250610702565b610275565b61027460405180606001604052806024815260200161117d60249139336107f1565b5b6102b56040518060400160405280601681526020017f257320776176656420772f206d65737361676520257300000000000000000000815250338361088d565b600360405180606001604052803373ffffffffffffffffffffffffffffffffffffffff16815260200183815260200142815250908060018154018082558091505060019003906000526020600020906003020160009091909190915060008201518160000160006101000a81548173ffffffffffffffffffffffffffffffffffffffff021916908373ffffffffffffffffffffffffffffffffffffffff16021790555060208201518160010190805190602001906103749291906109f1565b506040820151816002015550503373ffffffffffffffffffffffffffffffffffffffff167f5f7e16dc676677766a70e9c5628aa6c54ddb8b6e5188e2ae1e1f17f1ffbea71642836040516103c9929190610e81565b60405180910390a2610416565b6104156040518060400160405280601381526020017f2573206973206e6f74206120667269656e642100000000000000000000000000815250336107f1565b5b50565b80600260008473ffffffffffffffffffffffffffffffffffffffff1673ffffffffffffffffffffffffffffffffffffffff16815260200190815260200160002060006101000a81548160ff0219169083151502179055505050565b60006104b76040518060400160405280601781526020017f5765206861766520256420746f74616c2077617665732100000000000000000081525060005461092c565b600054905090565b60026020528060005260406000206000915054906101000a900460ff1681565b600160009054906101000a900473ffffffffffffffffffffffffffffffffffffffff1673ffffffffffffffffffffffffffffffffffffffff163373ffffffffffffffffffffffffffffffffffffffff16141561053a57610546565b610545336001610419565b5b565b60606003805480602002602001604051908101604052809291908181526020016000905b8282101561069057838290600052602060002090600302016040518060600160405290816000820160009054906101000a900473ffffffffffffffffffffffffffffffffffffffff1673ffffffffffffffffffffffffffffffffffffffff1673ffffffffffffffffffffffffffffffffffffffff1681526020016001820180546105f59061104d565b80601f01602080910402602001604051908101604052809291908181526020018280546106219061104d565b801561066e5780601f106106435761010080835404028352916020019161066e565b820191906000526020600020905b81548152906001019060200180831161065157829003601f168201915b505050505081526020016002820154815250508152602001906001019061056c565b50505050905090565b600160009054906101000a900473ffffffffffffffffffffffffffffffffffffffff1673ffffffffffffffffffffffffffffffffffffffff163373ffffffffffffffffffffffffffffffffffffffff1614156106f457610700565b6106ff336000610419565b5b565b610798816040516024016107169190610d9f565b6040516020818303038152906040527f41304fac000000000000000000000000000000000000000000000000000000007bffffffffffffffffffffffffffffffffffffffffffffffffffffffff19166020820180517bffffffffffffffffffffffffffffffffffffffffffffffffffffffff83818316178352505050506109c8565b50565b6000600260008373ffffffffffffffffffffffffffffffffffffffff1673ffffffffffffffffffffffffffffffffffffffff16815260200190815260200160002060009054906101000a900460ff169050919050565b6108898282604051602401610807929190610dc1565b6040516020818303038152906040527f319af333000000000000000000000000000000000000000000000000000000007bffffffffffffffffffffffffffffffffffffffffffffffffffffffff19166020820180517bffffffffffffffffffffffffffffffffffffffffffffffffffffffff83818316178352505050506109c8565b5050565b6109278383836040516024016108a593929190610df1565b6040516020818303038152906040527fe0e9ad4f000000000000000000000000000000000000000000000000000000007bffffffffffffffffffffffffffffffffffffffffffffffffffffffff19166020820180517bffffffffffffffffffffffffffffffffffffffffffffffffffffffff83818316178352505050506109c8565b505050565b6109c48282604051602401610942929190610e36565b6040516020818303038152906040527f9710a9d0000000000000000000000000000000000000000000000000000000007bffffffffffffffffffffffffffffffffffffffffffffffffffffffff19166020820180517bffffffffffffffffffffffffffffffffffffffffffffffffffffffff83818316178352505050506109c8565b5050565b60008151905060006a636f6e736f6c652e6c6f679050602083016000808483855afa5050505050565b8280546109fd9061104d565b90600052602060002090601f016020900481019282610a1f5760008555610a66565b82601f10610a3857805160ff1916838001178555610a66565b82800160010185558215610a66579182015b82811115610a65578251825591602001919060010190610a4a565b5b509050610a739190610a77565b5090565b5b80821115610a90576000816000905550600101610a78565b5090565b6000610aa7610aa284610ed6565b610eb1565b905082815260208101848484011115610abf57600080fd5b610aca84828561100b565b509392505050565b600081359050610ae18161114e565b92915050565b600081359050610af681611165565b92915050565b600082601f830112610b0d57600080fd5b8135610b1d848260208601610a94565b91505092915050565b600060208284031215610b3857600080fd5b6000610b4684828501610ad2565b91505092915050565b60008060408385031215610b6257600080fd5b6000610b7085828601610ad2565b9250506020610b8185828601610ae7565b9150509250929050565b600060208284031215610b9d57600080fd5b600082013567ffffffffffffffff811115610bb757600080fd5b610bc384828501610afc565b91505092915050565b6000610bd88383610cf4565b905092915050565b610be981610fc3565b82525050565b610bf881610fc3565b82525050565b6000610c0982610f17565b610c138185610f3a565b935083602082028501610c2585610f07565b8060005b85811015610c615784840389528151610c428582610bcc565b9450610c4d83610f2d565b925060208a01995050600181019050610c29565b50829750879550505050505092915050565b610c7c81610fd5565b82525050565b6000610c8d82610f22565b610c978185610f4b565b9350610ca781856020860161101a565b610cb08161113d565b840191505092915050565b6000610cc682610f22565b610cd08185610f5c565b9350610ce081856020860161101a565b610ce98161113d565b840191505092915050565b6000606083016000830151610d0c6000860182610be0565b5060208301518482036020860152610d248282610c82565b9150506040830151610d396040860182610d44565b508091505092915050565b610d4d81611001565b82525050565b610d5c81611001565b82525050565b60006020820190508181036000830152610d7c8184610bfe565b905092915050565b6000602082019050610d996000830184610c73565b92915050565b60006020820190508181036000830152610db98184610cbb565b905092915050565b60006040820190508181036000830152610ddb8185610cbb565b9050610dea6020830184610bef565b9392505050565b60006060820190508181036000830152610e0b8186610cbb565b9050610e1a6020830185610bef565b8181036040830152610e2c8184610cbb565b9050949350505050565b60006040820190508181036000830152610e508185610cbb565b9050610e5f6020830184610d53565b9392505050565b6000602082019050610e7b6000830184610d53565b92915050565b6000604082019050610e966000830185610d53565b8181036020830152610ea88184610cbb565b90509392505050565b6000610ebb610ecc565b9050610ec7828261107f565b919050565b6000604051905090565b600067ffffffffffffffff821115610ef157610ef061110e565b5b610efa8261113d565b9050602081019050919050565b6000819050602082019050919050565b600081519050919050565b600081519050919050565b6000602082019050919050565b600082825260208201905092915050565b600082825260208201905092915050565b600082825260208201905092915050565b6000610f7882611001565b9150610f8383611001565b9250827fffffffffffffffffffffffffffffffffffffffffffffffffffffffffffffffff03821115610fb857610fb76110b0565b5b828201905092915050565b6000610fce82610fe1565b9050919050565b60008115159050919050565b600073ffffffffffffffffffffffffffffffffffffffff82169050919050565b6000819050919050565b82818337600083830152505050565b60005b8381101561103857808201518184015260208101905061101d565b83811115611047576000848401525b50505050565b6000600282049050600182168061106557607f821691505b60208210811415611079576110786110df565b5b50919050565b6110888261113d565b810181811067ffffffffffffffff821117156110a7576110a661110e565b5b80604052505050565b7f4e487b7100000000000000000000000000000000000000000000000000000000600052601160045260246000fd5b7f4e487b7100000000000000000000000000000000000000000000000000000000600052602260045260246000fd5b7f4e487b7100000000000000000000000000000000000000000000000000000000600052604160045260246000fd5b6000601f19601f8301169050919050565b61115781610fc3565b811461116257600080fd5b50565b61116e81610fd5565b811461117957600080fd5b5056fe2573206973206d7920667269656e6420616e642074686579206861766520776176656421a2646970667358221220f02e1efaa0e223d0d2b1baf7917069b309f840a939d0fae831f3eb3cc8d661b164736f6c63430008040033596f20796f2c204920616d206120636f6e747261637420616e64204920616d20736d617274",
    "linkReferences": {},
    "deployedLinkReferences": {}
}