{
    "_format": "hh-sol-artifact-1",
    "contractName": "WavePortal",
    "sourceName": "contracts/WavePortal.sol",
    "abi": [
        {
            "inputs": [],
            "stateMutability": "nonpayable",
            "type": "constructor"
        },
        {
            "inputs": [
                {
                    "internalType": "address",
                    "name": "",
                    "type": "address"
                }
            ],
            "name": "Wallets",
            "outputs": [
                {
                    "internalType": "bool",
                    "name": "",
                    "type": "bool"
                }
            ],
            "stateMutability": "view",
            "type": "function"
        },
        {
            "inputs": [],
            "name": "addFriend",
            "outputs": [],
            "stateMutability": "nonpayable",
            "type": "function"
        },
        {
            "inputs": [],
            "name": "getTotalWaves",
            "outputs": [
                {
                    "internalType": "uint256",
                    "name": "",
                    "type": "uint256"
                }
            ],
            "stateMutability": "view",
            "type": "function"
        },
        {
            "inputs": [],
            "name": "removeFriend",
            "outputs": [],
            "stateMutability": "nonpayable",
            "type": "function"
        },
        {
            "inputs": [
                {
                    "internalType": "address",
                    "name": "_wallet",
                    "type": "address"
                },
                {
                    "internalType": "bool",
                    "name": "b",
                    "type": "bool"
                }
            ],
            "name": "setWallet",
            "outputs": [],
            "stateMutability": "nonpayable",
            "type": "function"
        },
        {
            "inputs": [],
            "name": "wave",
            "outputs": [],
            "stateMutability": "nonpayable",
            "type": "function"
        }
    ],
    "bytecode": "0x608060405234801561001057600080fd5b5033600160006101000a81548173ffffffffffffffffffffffffffffffffffffffff021916908373ffffffffffffffffffffffffffffffffffffffff16021790555061007d604051806060016040528060258152602001610ad86025913961008260201b6103121760201c565b610205565b61011e816040516024016100969190610183565b6040516020818303038152906040527f41304fac000000000000000000000000000000000000000000000000000000007bffffffffffffffffffffffffffffffffffffffffffffffffffffffff19166020820180517bffffffffffffffffffffffffffffffffffffffffffffffffffffffff838183161783525050505061012160201b60201c565b50565b60008151905060006a636f6e736f6c652e6c6f679050602083016000808483855afa5050505050565b6000610155826101a5565b61015f81856101b0565b935061016f8185602086016101c1565b610178816101f4565b840191505092915050565b6000602082019050818103600083015261019d818461014a565b905092915050565b600081519050919050565b600082825260208201905092915050565b60005b838110156101df5780820151818401526020810190506101c4565b838111156101ee576000848401525b50505050565b6000601f19601f8301169050919050565b6108c4806102146000396000f3fe608060405234801561001057600080fd5b50600436106100625760003560e01c80636fe15b4414610067578063788cea16146100715780639a2cdc081461008d578063af154011146100ab578063b177c3f7146100db578063c9c8161e146100e5575b600080fd5b61006f6100ef565b005b61008b600480360381019061008691906105b5565b610232565b005b61009561028d565b6040516100a291906106f4565b60405180910390f35b6100c560048036038101906100c0919061058c565b6102d8565b6040516100d29190610657565b60405180910390f35b6100e36102f8565b005b6100ed610305565b005b600160009054906101000a900473ffffffffffffffffffffffffffffffffffffffff1673ffffffffffffffffffffffffffffffffffffffff163373ffffffffffffffffffffffffffffffffffffffff1614156101a1576101836040518060400160405280601281526020017f49207761766564206174206d7973656c66210000000000000000000000000000815250610312565b6001600080828254610195919061072b565b92505081905550610230565b6101aa336103ab565b156101ef5760016000808282546101c1919061072b565b925050819055506101ea60405180606001604052806024815260200161086b6024913933610401565b61022f565b61022e6040518060400160405280601381526020017f2573206973206e6f74206120667269656e64210000000000000000000000000081525033610401565b5b5b565b80600260008473ffffffffffffffffffffffffffffffffffffffff1673ffffffffffffffffffffffffffffffffffffffff16815260200190815260200160002060006101000a81548160ff0219169083151502179055505050565b60006102d06040518060400160405280601781526020017f5765206861766520256420746f74616c2077617665732100000000000000000081525060005461049d565b600054905090565b60026020528060005260406000206000915054906101000a900460ff1681565b610303336001610232565b565b610310336000610232565b565b6103a8816040516024016103269190610672565b6040516020818303038152906040527f41304fac000000000000000000000000000000000000000000000000000000007bffffffffffffffffffffffffffffffffffffffffffffffffffffffff19166020820180517bffffffffffffffffffffffffffffffffffffffffffffffffffffffff8381831617835250505050610539565b50565b6000600260008373ffffffffffffffffffffffffffffffffffffffff1673ffffffffffffffffffffffffffffffffffffffff16815260200190815260200160002060009054906101000a900460ff169050919050565b6104998282604051602401610417929190610694565b6040516020818303038152906040527f319af333000000000000000000000000000000000000000000000000000000007bffffffffffffffffffffffffffffffffffffffffffffffffffffffff19166020820180517bffffffffffffffffffffffffffffffffffffffffffffffffffffffff8381831617835250505050610539565b5050565b61053582826040516024016104b39291906106c4565b6040516020818303038152906040527f9710a9d0000000000000000000000000000000000000000000000000000000007bffffffffffffffffffffffffffffffffffffffffffffffffffffffff19166020820180517bffffffffffffffffffffffffffffffffffffffffffffffffffffffff8381831617835250505050610539565b5050565b60008151905060006a636f6e736f6c652e6c6f679050602083016000808483855afa5050505050565b6000813590506105718161083c565b92915050565b60008135905061058681610853565b92915050565b60006020828403121561059e57600080fd5b60006105ac84828501610562565b91505092915050565b600080604083850312156105c857600080fd5b60006105d685828601610562565b92505060206105e785828601610577565b9150509250929050565b6105fa81610781565b82525050565b61060981610793565b82525050565b600061061a8261070f565b610624818561071a565b93506106348185602086016107c9565b61063d8161082b565b840191505092915050565b610651816107bf565b82525050565b600060208201905061066c6000830184610600565b92915050565b6000602082019050818103600083015261068c818461060f565b905092915050565b600060408201905081810360008301526106ae818561060f565b90506106bd60208301846105f1565b9392505050565b600060408201905081810360008301526106de818561060f565b90506106ed6020830184610648565b9392505050565b60006020820190506107096000830184610648565b92915050565b600081519050919050565b600082825260208201905092915050565b6000610736826107bf565b9150610741836107bf565b9250827fffffffffffffffffffffffffffffffffffffffffffffffffffffffffffffffff03821115610776576107756107fc565b5b828201905092915050565b600061078c8261079f565b9050919050565b60008115159050919050565b600073ffffffffffffffffffffffffffffffffffffffff82169050919050565b6000819050919050565b60005b838110156107e75780820151818401526020810190506107cc565b838111156107f6576000848401525b50505050565b7f4e487b7100000000000000000000000000000000000000000000000000000000600052601160045260246000fd5b6000601f19601f8301169050919050565b61084581610781565b811461085057600080fd5b50565b61085c81610793565b811461086757600080fd5b5056fe2573206973206d7920667269656e6420616e642074686579206861766520776176656421a264697066735822122005f838471d138dbd07b0240a1ad85fe33655e912c7ad7ba74beb5a506ff512d264736f6c63430008040033596f20796f2c204920616d206120636f6e747261637420616e64204920616d20736d617274",
    "linkReferences": {},
    "deployedLinkReferences": {}
}